:020000041000EA
:4000000000400208230100100D00000085010010000000000000000000000000000000000000000000000000000000008101001000000000000000008101001081010010E9
:400040008101001081010010810100108101001081010010810100108101001081010010810100108101001081010010810100108101001081010010810100108101001060
:400080008101001081010010810100108101001081010010810100108101001081010010810100108101001081010010810100108101001081010010810100108101001020
:4000C00010B5064C2378002B07D1054B002B02D0044800E000BF0123237010BDD406000800000000888C0010084B10B5002B03D00749084800E000BF07480368002B00D17E
:4001000010BD064B002BFBD09847F9E700000000D8060008888C001084010008000000007047FFF7FDFF72B60F4C104DAC4209DA21686268A368043B02DBC858D050FAE760
:400140000C34F3E70A490B4A0020521A02DD043A8850FCDC084809490860BFF34F8F00F03FF900F01DF8FEE78C8C0010A48C0010D4060008FC0800080000000808ED00E085
:40018000FEE7FEE700B504207146084202D0EFF3098001E0EFF30880043001F0E5FBFEE770B562B6174800F0A1F901F00FFF164DFE218905286801F0EBFF041C2860134985
:4001C00001F0DCFF002804D01049201C02F006FA28600D4B186803F0A1FC0D4A0D4B02F099FE00220C4B02F07FFB06F069FF00220A4B02F08FFE03F05BFC0100084804F0C0
:40020000C9FAD4E700000810F00600080000B4431F85EB51B81E094000806640000059409482001010B5002000F02EFF10BDC04670B56249E0239B00CB580F2213401A004B
:40024000D0329200525807210A40032A05D0042A06D0002A12D15A4814E05A4A106811E01A00C0329200554952581F210A40112A06D0132A04D0FA20C00103E0524801E04D
:4002800080200002002B36D14C4BB222D2009A5801211140B125ED005A59120F032422405B591B0F1C4207D0444C63591B0F03242340012B02D102E0012300E00023002B62
:4002C00001D0002901D1032A4BD13C4BB022D2009D58AD03AD0B3D495958C904C90C9C58240E01231C40013401F08CFE6843210001F088FE35E0012B33D1304BC822D20073
:400300009A5801251540C024E4001A59120F03210A401B591B0F194207D028490B591B0F03210B40012B02D102E0012300E00023002B01D0002D01D1032A12D11F4DC022E7
:40034000D200AB587F210B40A958090A1F263140AC58240C3440584301F054FE210001F051FEE0239B00154AD3581B0903221340D840144C6060164B1D692D0AFC3215406F
:4003800001351969090E013101F03CFEA060290001F038FE0500E06020610E4BC0180E4901F030FE20750D4BE818FA21890001F029FEA061C003E06170BDC046000026400D
:4003C00000127A00C000000800366E0184050000000021403F420F0040420F00E703000010B5284801F0C2FD274CB022D200A3585B005B08A350E02189006358302083430C
:40040000635080235B04A350204A214BE250A02292010433E250FF221E4BE25001F094FDC0225200A35801218B43A35000F0A4F9FFF7FEFEB0235B055B78002B04D0B023A7
:400440005B055B78DBB200E02123212B03D1124B0022DA605A60114C22008021042000F0B9FB2000103000F04DFC0D4B1A685123D35C002B02D00B4800F0BAFC00F082FAA5
:4004800010BDC046688700100000264001000200840500008C050000E0002340F4060008BC0800089C8200108023024AD3580320184070470000214010B501F0E6FA084914
:4004C00080228C58074B2340074C23438B508823034AD358DB06FAD501F0DBFA10BDC04600002140FCFF00000100FA0570B50500830504D0E821FF310F4801F007FA01F06C
:40050000C4FA0400FFF7D0FF032801D1FFF7D4FF0A4AB0239B00D55080215058084B03400848034353508823044AD358DB06FAD5200001F0AEFA70BDD082001000002140F2
:40054000FCFF00000300FA0510B504002100034800F0CCFD0028F9D010BDC04600006740C2239B00034AD358DB05F9D0D0239B00D058704700006740FEE7C04630B587B069
:400580006E49A022D2008B58032083438B506C4A116808688823CB58C31818686949084018601368186884241B59C01803681B021B0A80256D042B4303601068056803594B
:4005C000EB1818680140196013683E229A5C002A06D05A48E02189004258753CA24342503E229A5C002A06D05448E021890042583024A24342503E229B5C002B07D04F492D
:40060000E02292008B588020000603438B500021012000F057FF0021022000F053FF0021032000F04FFF0021042000F04BFF0021002000F047FF01A8434903000A0032CAB9
:4006400032C312CA12C300F06BFF002802D00420FFF792FF39493D4A8B588020000603438B503B4801F018F8002802D00420FFF783FF324C374BE158374A0A40E250E15899
:40068000364A0A40E250E25880252D062A43E250043BE158324A0A40E250E158314A0A40802189010A43E250E258802109020A43E2502D4A11682D4B0B40802149000B4325
:4006C0001360002001F022FC294BE2581543E550E158012291430A43E2506421002001F05BF9174B1B683F229A5C062A03D90021204A986881509A6874215B5AD218116831
:40070000104B0B408C2189010B4313600C4B1A687323D15C703B8B4019007023D35C7220105C83400B43802109060B438021C9009068435093685B5807B030BD0000264074
:40074000BC080008FF00FFFFE8820010087F0000400D030004050000FEFCFFFFFFFF00FFFFF0FFFFFF8FFFFF00002740FFFCFFFF0C050000180C000030B58BB0962100205C
:4007800001F00AF901F0E0F8002814D101F0CCF8C0235B001D4AD358DB0705D411001C4A8B585B005B088B501849194A8B588020000603438B50012001F040FB154A516C65
:4007C000154B0B40E82189010B435364536C1B0AFF2213403A2B07D10E4A516C0F4B0B40E82189010B435364FFF7C8FE01A90A000B4B143331CB31C231CB31C231CB31C2F5
:40080000084800F0C7F80BB030BDC046000026400C05000000002740FF00FFFFFFC5FFDFE882001000033240214B984230D00ED8402831D004D800281FD010282AD031E0D4
:4008400080282BD080235B00984229D02AE0194B984229D007D8A0231B0698420DD0164B984212D01EE0154B98420AD0144B984209D0144B984215D101E0002016E0124898
:4008800014E0124812E0124810E0A020C0030DE007480BE00F4809E00F4807E00F4805E0034803E00E4801E0A420C0037047C04606005200010000F0090000A0040000F0BB
:4008C000050000F0030000F0010052000200520003005200010050000200500005005200FF00520070B5124B1A683123D35C002B04D1C421FF310F4801F008F80C4B1D6809
:400900002C00B423EB582A6A944663441B68002B0BDB094B1868FFF787FF6B6801229A6063689B68002BFBD100E0044870BDC046BC080008208300108408000802005000FF
:4009400010B50D4B1861002805D002230370FD33437000234380094B1B6850229A5C002A08D051229B5C002B04D04F3A0449002000F0F8FA10BDC04684080008BC080008CE
:40098000FD01000810B502481430FFF7D9FF10BD8408000870B505000C0000285DD000295DD0FF230A689A4303D099212D4800F0ADFFFF2322699A4303D09A21294800F046
:4009C000A5FFA3685B0D03D09B21264800F09EFF63685B0A03D09C21224800F097FFE3695B0F03D09D211F4800F090FF236A5B0F03D09E211B4800F089FF1B4A11688B6943
:400A0000EB1ADB0949691B01CB18216829607D211068415C6918E06808607E211068415C6918206908607F211068415C6918606908607C211068415C6918A068086061682D
:400A4000A961116880228A5CAD18A2692A60E2691A60226A5A60002002E0044800E0034870BDC04660830010BC08000801005A0070B504000D000A4B1A68B423D3581B18FE
:400A80001B68002B0ADA0B0C03D00649064800F03DFF2D042D0C6560002000E0034870BDBC080008D5020000E083001001008A0070B505000C000368002B01DA002300E0FF
:400AC000084B002B0BD1EA60230C03D00649074800F01CFF2404240CAC60002000E0014870BDC04601008A00BB020000E083001070B505000C1E03D19921084800F006FFE5
:400B0000074B1A68B423D3585B191B68002B03DAEB682360002000E0024870BD20840010BC08000801008A0070B504000D00234B1A683123D35C834236D9002936D00B6869
:400B4000DB0635D13123D35C984204D3C421FF311B4800F0DBFE194B1B681A6AB0215B5A5C431419174E34602B68DA080021686803F092F900212000FFF77AFF3468002D06
:400B800003D111490E4800F0C1FE2A0000212000FFF78EFF00280DD10A4B18680021FFF767FF002808D108E0084806E0074804E0064802E0064800E0054870BDBC080008C6
:400BC000E08300109C0800089303000003018A0001018A0010B50400002A17D1002915D1124B1A683123D35C984204D3C421FF310F4800F08BFE0D4B1B681A6AB0215B5A5F
:400C00005C4314190B4B1C6000200EE0002A09D0002909D0074B59609A60191D2000FFF783FF02E0044800E0034810BDBC080008E08300109C08000803018A00F0B583B0B9
:400C40000D001C4B1B68DC68236883422DD947097B01C01A012383401E00002903D100F014FF019001E000230193124B18680368002B01DA002300E00F4B002B0ED163688F
:400C8000BF00DF193B68334203D0B3433B60002400E00A4C0021FFF7EBFE00E0084C002D04D1019800F0F5FE00E0064C200003B0F0BDC0469C08000801008A00020188007B
:400CC0000301880004018A000A4B1B68DA68136883420BD943095901401A0121814052689B009B580B4203D0034802E0034800E0034870479C0800080101880004018A0031
:400D000000018800034B1B68002B01D1014B18607047C046A8080008F0B5474680B404000F0090461E002D4B1B68002B03D1B5212B4800F0EBFD294B1B682C2060431C1881
:400D4000FF22150035402560330A13406360360CA660244B1A683123D35C9D4204D3C421FF31214800F0D2FD1E4B1A68B023D35A6B43116A8C466344236166683223D35CDE
:400D80009E4204D3E021FF31174800F0BFFD154B1B681D6A80367601AD196561A668330C04D0FF214900104800F0B0FD330C03D00E490D4800F0AAFD3604330C1E43AE6061
:400DC0004346E36127620023A361069B002B02D000229B5EA38104BC9046F0BDA808000860840010BC080008E0830010FF010000F0B58FB0041E03D15221294800F086FD3A
:400E00006368032B03D95421254800F07FFDE36A002B03D15821224800F078FD236B002B03D159211E4800F071FD07AA1300210061C961C321C921C302AD290023001433ED
:400E4000C1CBC1C141CB41C10821535E0CAE3380144B1B6836215B5E07998C466344B370089B0D930B9B0A980096A26AE16AFFF753FF2B69E868002200920021FFF74CFF27
:400E8000216B300000F0D4FC0023F25E002A05DB1F231A401E3B9340034A13600FB0F0BD60840010BC08000800E100E0F8B505000F0016001C00002A03D1FD21224800F05B
:400EC00025FD224B1B68002B03D1FE211E4800F01DFD1E4B1B682C2128004843181879435918012213004D68AB401B044568AA4015000269002A20D08F69002F1FD1126852
:400F0000002A01DA002200E0114A002A19D132681204120C134333600369DE6001238B614C6204692B0C03D00A490B4800F0EEFC2A04120CA260002004E0084802E0084851
:400F400000E00748F8BDC04660840010A808000801008A00BB020000E083001004028A0007028A0070B504000D0016000F4B1B68002B04D1AF2149000D4800F0C7FC0B4B5D
:400F80001B682C2060431C18236A002B04D1B1214900074800F0BAFCE369B34204D9236AB6009D51002000E0024870BDA8080008608400100A028A0070B582B00400002368
:400FC0000193002804D1D221FF312D4800F09EFC2369002B04D1E9214900294800F096FC6369002B04D1D421FF31254800F08EFC236A002B04D1EA214900214800F086FCD8
:401000006269D5682B0C24D01B041360136820691C4B1A68B423D358C3181B68002B18DA01A9FFF765FD00280ED1019803681E0CFF221340E269934207D29B00226AD3588B
:40104000002B02D0984700E0002631002069FFF70FFD2D042D0C0FD063691D601B68636A002B03D098470023636203E0A36A002B00D098470023A36163691B6802B070BD0C
:4010800060840010BC08000810B50400084B1B68002B04D1B221FF31064800F037FC044B1B682C2060431818FFF786FF10BDC046A80800086084001010B50400094B1B68D2
:4010C0009B6CC340DB0703D4BE21074800F01EFC044B1B681B691034A402E3580F20184010BDC046BC080008A084001003681B0501D5802200E0402282239B00C358DB05A0
:40110000DB0D934204D090239B00C150012000E000207047F8B505000C001600002800D1BDE1002900D1BCE10B78022B03D93F21C14800F0EBFB637B023BDBB2062B03D965
:401140004021BD4800F0E2FBA37B002B07D0022B05D0032B03D04121B74800F0D7FB2123E35C012B03D94221B34800F0CFFB2823E35C012B03D94321AF4800F0C7FB237819
:40118000012B06D86268083A082393429B415B4208E0A37F002B05D063685A1E062393429B415B42002B03D04521A34800F0AEFBA368053B042B03D946219F4800F0A6FBBF
:4011C0006369FF2B03D947219B4800F09FFBA369FF2B03D94821984800F098FBA37C002B0FD02378002B07D1A368092B06D1A37B002B05D0012304E0012302E0012300E05D
:401200000023002B03D04A218B4800F07FFB8B4B626B1A4203D04C21874800F077FB884BE26B1A4203D04D21834800F06FFB2378022B02D1A37F002B02D063685A1E00E0B6
:401240000022237F002B02D08021490200E00021A368082B02D880231B0100E0002319430F2313400B438022920413432B60226B2B681B0501D5802300E040239A4203D3F0
:4012800062216D4800F042FBA26B2B681B0501D5802300E040239A4203D36321664800F035FB626A2B681B0501D5802300E040239A4203D36421604800F028FB23781B0660
:4012C000C022920413402B64637F002B01D0402200E00022A37C002B02D08023DB0000E000231A43237C002B02D08021490000E000210A43637C002B02D08021890000E09E
:4013000000210A43E36A013B1B04F020000303401343627B013A07210A4013431900A27B120130231A400B001343AB64237B002B02D08022520000E00022E37B002B04D1B6
:401340002378022B03D1013B02E0012300E00023002B02D080239B0000E000231343A268013A0F273A401343C02292009446AB50FF2260691040A3691A04FF2109040A4089
:401380000243C4239B00EA50E26A6346EB583B4003339A4201D3102A03D97A21264800F0B5FAE37F002B04D02378012B03D0002302E0002300E00123002B02D080204000D1
:4013C00000E00020627B013A0723134001001943A27B120130231A400B0013436B64237B002B02D08021490000E00021A3685A1E0F2313400B432278012A02D18022520284
:4014000000E00022134380229200AB50FF23226B1340C1229200AB502023E35C002B02D08022920400E000222123E35C012B09D180235B0407E0C0466485001092F4FFFF05
:401440008CF8FFFF002313432822A25C012A02D18022520200E000221343FF21626A0A4013432B65A36B0B4081229200AB500F4B626B13400E4AAB50E26B0E4B13400E4A1A
:40148000AB50002E0FD0002373603360B360F3603362F3623363094B7363002004E0084802E0074800E00020F8BDC0466D0B0000C80F000073070000880F0000EFCDAB0084
:4014C0000160AA00134B1A683C23D35C83421DD9042904D94B1EFF3B9BB2132B18D8FF290CD91F2319400C4A0300C0339B009950D03080000423835000200AE00723194011
:40150000D0308000044BC150002002E0034800E002487047BC0800080000264001004A0070B5041E03D14A494A4800F0EFF9B023DB00494AD358002B00DA87E0474B226814
:401540009A4203D94649434800F0E0F923689B039B0BE279002A02D08022520400E000221343B022D2003C498B50A2883D4B9A4204D98C218900374800F0C8F922893A4B55
:401580009A4203D93949334800F0C0F9A388DB04D90C23891B04364A13400B43354A2E498B50A37A0F2B04D98E218900294800F0ADF9E37A0F2B03D92F49264800F0A6F9C6
:4015C000A289284B9A4203D92C49224800F09EF9A37A0F211940E27A1201FF2313400B43A289120226490A401343A27B1207C02189050A401343B122D20017498B50A379C8
:40160000042B03D91F49134800F080F9228A164B9A4204D9912189000E4800F077F90E4819494558194B1D40A3791B02E022D20013402B4343504558154B1D40238A1B041F
:401640000B4A13402B434350002000E0114870BD1F020000A485001000002640FFFF030029020000FF1F0000FF010000310200000000FF0184050000390200003A020000FE
:4016800000FF1F00430200008C050000FFF8FFFFFFFF00FE03004A0070B505003149324A8B588020000603438B502C0003E0012000F020F9013CB223DB002A4AD3585B0707
:4016C00001D4002CF3D12749B122D2008858274B03408020800503438B50002D01D0002C0CD02049B022D2008B588020000603438B5003E0012000F0FDF8013CB223DB00A2
:40170000184AD358DB0701D4002CF3D1002D01D0002C08D01349B122D2008B58C020800503438B5013E00F4BB121C90058580F4A02408020800502435A5008395A5852007D
:4017400052085A5008495A58520052085A50002D03D0002C03D0002002E0002000E0044870BDC046000026408C050000FFFFFFCF02004A0070B505000C001A4B1B68282215
:401780009A5C012A15D1820807211000884327D19200AD1AED00FF20A8401B6820339A181168AC4023004B40184004004C40146016E03A229B5EDBB2994203D176210A48E9
:4017C00000F0A4F8074B1B681B68072215408022120615438022920194466444A400E55070BDC046BC0800082C86001070B504000D000B4B9A680B4B9A420CD1002904D189
:401800003821FF31084800F081F81034054BA400E058E55003E01034A400044BE05870BD00ED00E0000000082C86001000000010F0B5474680B482B0061E01914AD0436888
:40184000032B03D93221264800F060F80023F05E002804DBB178FFF78DFF002400E0214C0023F15E7368002912DB88081E4FC0308000C55903221140C900FC3290468A40C6
:4018800095439A01434613408B402B43C35116E089B20F220A40083A92080632920013481018476803221140C900FF252A008A4097439A012B0013408B403B4343600B4B7C
:4018C0009A680B4B9A4206D10023F05E0199FFF78DFF00E0034C200002B004BC9046F0BD2C8600100100560000E100E000ED00E00000000810B5034B1B78584300F0BCF878
:4019000010BDC046D400000801BEFEE770B50D00044C18220100200002F05DFFA5610020FFF7F2FF98060008054B802212069A649B6C002B01DB002000E002487047C04659
:401940000000274003004600054B8022120198585B68FF221A4202D08023DB021843704700002640FEE7C04610B50A4B0268DA6142681A6282685A62C2689A620269DA6275
:4019800042691A6382695A63C2699A63FFF7EAFF10BDC04698060008F0B5474680B4002801D0192300E064238B429B415B42304D2C682268A826A45BA41822680327BA43BA
:4019C0003B401A4322602C682268A45BA2181668284CA046264016602C682668AA229446A25A96193268BA43134333602A6813686546525BD3181A68444614401C600028BB
:401A000005D010291BD921291BD8012024E0184B1B6855229A5C914215D956229A5C914213D957229A5C914211D958229A5C91420FD959229B5C99420DD804200CE0002048
:401A40000AE0022008E0002006E0012004E0022002E0032000E00520054A1268526813680F218B430343136004BC9046F0BDC046BC080008FFFCFFFF0230800803D00130BA
:401A80000238FCD1C046C0467047EFF3108072B6704780F31088704710B5B0235B059B899BB2002B04D0B0235B059B899BB201E080235B0080225200934215D1184C2368C0
:401AC0001968683A9B58C9180B680F208343963A13430B6021680C689C23CB58E318196881430A431A6019E00D4C2368196898229B58C918B02040050A4BC2580A4B1340F8
:401B00000A681343C022920013430B60226811689C23D358CB18054A82581A6010BDC046BC08000848180000FFFCFFFF4418000030B5B0235B059B899BB2002B04D0B02386
:401B40005B059B899BB201E080235B0080225200934215D1184C23681968683A9B58C9180B680F208343953A13430B6021680C689C23CB58E318196881430A431A6019E049
:401B80000D4D2B68196898229B58C918B0246405C12040012258094B13400A681343C022920013430B602A6811689C23D358CB1822581A6030BDC046BC080008FFFCFFFF28
:401BC000B0235B059B899BB2002B04D0B0235B059B899BB201E080235B008022520093420DD1104B1B681A6898215B58D21811680D4B0B40C021C9010B43136011E0094B95
:401C00001B68196898229B58C918084BB0225205D258074B13400A681343C022920013430B607047BC080008FF8FFFFF18180000FFFCFFFF30B5B0235B059B899BB2002BDE
:401C400004D0B0235B059B899BB201E080235B008022520093420DD1134B1B681A6898215B58D2181168114B0B408021C9010B43136018E00C4D2B68196898229B58C9186E
:401C8000B02464050A4822580A4B13400A681343C022920013430B602A6811689C23D358CB1822581A6030BDBC080008FF8FFFFF4C180000FFFCFFFF10B5B0235B059B89EC
:401CC0009BB2002B04D0B0235B059B899BB201E080235B0080225200934217D10020FFF7EBF9B0235B055B78002B04D0B0235B055B78DBB200E02123222B03D8002803D18A
:401D0000013004E0012002E0002000E0012010BDF8B50700012803D93D493E48FFF7F6FDB0235B055B78002B04D0B0235B055B78DBB200E021239DB2B0235B059B899BB240
:401D4000002B04D0B0235B059E89B6B201E0802676000020FFF7B0F9002814D180235B009E4212D1222D12D82B4B1B685C682B4821582B4B19403B068022520413400B438D
:401D80002350002404E0274C02E0264C00E0254C80235B009E4201D1222D03D880235B009E4232D01C4B1A683123D35C002B04D1C421FF311C48FFF7A9FD174B1B681D6AE9
:401DC00080235B009E4203D1002F05D0174A06E0002F03D0164A02E0164A00E0164A01212800FEF765FE00280FD10B4B1A68B423D3585B191B68002BF7DBEB681B0E1B06ED
:401E0000A0221206934200D100242000F8BDC0464C0A000070860010BC08000818F00000FFFFFFFE0400420020830010010100300300000C010000300100000CF8B50500CE
:401E4000012804D9822109012948FFF75FFDFFF733FF002849D0FFF718FE0700002D11D10021244B244AD150E823DB00B0225205D65CF6B20120FFF74BFF041E19D1FFF7F6
:401E80000BFE16E0B02252051C4BD0581A4B194958501B49565CF6B21A481A581F218A4314390A431A500320FFF724FDFFF7C2FE0024002C15D11049124A8B581F20834396
:401EC00006401E438E50002D02D1FFF779FE08E00720FFF70FFDFFF72BFE0020FFF718FF04003800FFF7D5FD00E0074C2000F8BD70860010307F0000000026401018000044
:401F0000410700001CFF000003004200042805D10B4A116804230B4313600FE0094B1A681168A023D358CB180006C022920410401860034A136804218B4313607047C04601
:401F400010E000E0BC0800080749C02252008B589B009B088020C00503438B508B588020000603438B50704700002640014B18607047C046BC08000870B50D001600002915
:401F800007D1002408E02878FEF7DEFA0135013400E00024B442F6DB200070BD70B50D00160000290CD100240DE0FEF7D9FAC0B2287001340A2806D00D2804D0013500E0C0
:401FC0000024B442F1DB200070BDC04610B5094B1B78002B07D1084A08490948FFF79AF80122044B1A70064A1368802109060B43136010BDAC080008C00800082088001034
:4020000000006740002243088B4274D303098B425FD3030A8B4244D3030B8B4228D3030C8B420DD3FF22090212BA030C8B4202D31212090265D0030B8B4219D300E0090A23
:40204000C30B8B4201D3CB03C01A5241830B8B4201D38B03C01A5241430B8B4201D34B03C01A5241030B8B4201D30B03C01A5241C30A8B4201D3CB02C01A5241830A8B42B6
:4020800001D38B02C01A5241430A8B4201D34B02C01A5241030A8B4201D30B02C01A5241CDD2C3098B4201D3CB01C01A524183098B4201D38B01C01A524143098B4201D32A
:4020C0004B01C01A524103098B4201D30B01C01A5241C3088B4201D3CB00C01A524183088B4201D38B00C01A524143088B4201D34B00C01A5241411A00D201465241104638
:402100007047FFE701B5002000F006F802BDC0460029F7D076E770477047C0468446081C6146FFE71FB500F015FA002801D40021C8421FBD10B500F0A1F94042013010BD97
:4021400010B500F007FA002801DB002010BD012010BDC04610B500F0FDF9002801DD002010BD012010BDC04610B500F0AFF9002801DC002010BD012010BDC04610B500F03A
:40218000A5F9002801DA002010BD012010BDC046F8B54A02430244004E00C50F240E28009B09360EC90F92098D4259D0A01B002800DC8DE0002E1AD1002A00D079E05A0753
:4021C00004D00F221A40042A00D004335A0138D50134FF2C00D189E028009B015B0AE4B25B02E4055B0A2343C0071843F8BDFF2CE5D08021C9040A431B2800DD89E0160068
:402200002021C640081A8240511E8A4132439B1A5A0114D59B019E09300001F011FD05388640844265DC041B330020200134E340041BA640721E964100243343BFE75A0758
:40224000BFD1DF082800FF2C2FD1002F00D187E08022D20313003B435B025B0AFF24BFE7A11B002949DD002E29D0FF2CA7D08026F60432431B2900DD8DE017002026CF40B7
:40228000711A8A40511E8A413A439B185A01D6D50134FF2C64D0012276491A405B080B4013438CE7031ECAD100207B025B0AE4B296E701380028AAD0FF2C9DD17FE7002A3D
:4022C00000D17CE701390029DFD0FF2CD2D176E7002820D1601CC0B2012853DD80279E1AFF0437402FD0D61A0D0095E72800002376E7614B241A334061E700294DD1611CAB
:40230000CEB2012E2FDDFF292AD09B185B080C0055E701227BE7002C1BD1002B5BD0C04300280CD0FF2E7ED01B2800DD92E01D002024C540201A8340581E83412B43D31A63
:4023400034000D0064E7002E00D065E700200024ABE7FF2E67D08024E40440422343E3E7FF2400233CE7002C61D1002B7ED0002A00D124E79B185A0100D460E73E4A0C000C
:4023800013401CE7002C1ED1002B2FD1002A66D013000D0013E7012277E7002C1FD1002B5AD0C94300290BD0FF2E50D01B295FDC1F002024CF40611A8B40591E8B413B43C0
:4023C0009B18340062E7002B1CD1002A4AD013000D00FF24F3E6130034000D00EFE6FF2E35D08024E40449422343DFE7002A00D1E5E68027981AFF04074000D152E7D31A37
:402400000D00DCE6FF24002A00D1D8E68020DB08C003034204D0D208024201D113000D00DB00FF24CBE61300FF240D00C7E6002B0DD0FF24002A00D1C1E68021DB08C903C6
:402440000B42EDD0D2080A42EAD11300E8E71300FF24B4E6012372E713003400AFE60027002022E780270020FF03F1E61300A6E60123A5E7FFFFFF7DFFFFFFFB430270B54B
:4024800042004C005D0AC30F4802120E460A240EC90FFF2A0FD0FF2C11D00120A24200D070BDB542FCD18B420DD0002AF8D12800431E9841F4E70120002DF1D1EBE70120DA
:4024C000002EEDD1E9E70020EAE7C0464302F0B542005D0AC30F4802440A4800120E000EC90FFF2A1FD0FF2822D0002A09D16E426E4100280FD1002C0DD10020002D09D012
:4025000005E0002801D1002C01D08B4213D0584201231843F0BD002EF7D048424141012049420843F6E7002DDDD002204042F1E7002CDAD0F9E78242E9DC04DBA542E6D85B
:402540000020A542E6D25842434101205B421843E0E7C0464302F0B542004C005E0AC30F4802120E450A240EC90FFF2A17D0FF2C19D0002A0BD170427041002C17D000285B
:4025800007D048424141012049420843F0BD002C13D08B4214D0584201231843F6E70220002EF3D1E3E70220002DEFD1E1E7002DE5D10020002EE9D0EDE7002DE9D1EAE7B3
:4025C000A242E8DC04DBAE42E5D80020AE42DDD25842434101205B421843D7E7F8B54A024E0043024400240EC50F9B09360EC90F9209FF2E00D183E001204140A01BA94219
:402600005CD0002800DC95E0002E1CD1002A00D081E05A0704D00F221A40042A00D004335A013BD50134FF2C00D191E001209B015B0AE4B205405B02E4055B0AED0723437B
:402640002B431800F8BDFF2CE3D08021C9040A431B2800DD90E016002021C640081A8240511E8A4132439B1A5A0115D59B019E09300001F0E5FA0538864084426CDC041B99
:40268000330020200134E340041BA640721E964100243343BDE70D005A07BCD1DF0801231D40FF2C33D1002F00D190E08022D20313003B435B025B0AFF24BCE700284FDDBF
:4026C000002E2ED0FF2CA4D08025ED042A431B2800DD97E016002025C640281A8240501E824132439B185A01D5D50134FF2C6DD001227B481A405B08034013430D0088E75D
:40270000002A00D07AE777E7031EC5D100257B025B0AE4B28FE701380028A4D0FF2C97D177E7002A00D174E701380028DAD0FF2CCDD16EE7002821D1601CC0B2012858DD6B
:4027400080279E1AFF0437402FD0D61A0D008FE701231D4000236EE7624B241A334058E7002851D1601CC6B2012E33DDFF282DD09B185B0804004CE7012274E7002C1AD0F6
:40278000FF2E1FD08024E404404223431B2800DD96E01D002024C540201A8340581E83412B43D31A34000D005EE7002E00D05FE700250024ABE7002B44D0C0430028F0D02C
:4027C000FF2EE3D11300FF240D0022E70D00FF24002330E7002C5DD1002B7DD0002A00D117E79B185A0100D456E73E4A040013400FE7002C1ED1002B2FD1002A65D01300CB
:402800000D0006E701226DE7002C1FD1002B59D0C04300280BD0FF2E4FD01B285EDC1D002024C540201A8340581E83412B439B18340058E7002B1CD1002A49D013000D003C
:40284000FF24E6E6130034000D00E2E6FF2E34D08024E40440422343DFE7002A00D1D8E68027981AFF04074000D14DE7D31A0D00CFE6FF24002A00D1CBE68020DB08C003BD
:40288000034204D0D208024201D113000D00DB00FF24BEE6002B10D0FF24002A00D1B8E68020DB08C003034203D0D208024200D11300DB000D00FF24ABE61300FF24A8E6C6
:4028C00001236EE713003400A3E6002700251EE780270025FF03E9E613009AE60123A6E7FFFFFF7DFFFFFFFBF0B556464D4644465F46F0B41D000E034C00CB0F87B00700B2
:4029000092468146360B640D98466AD06D4B9C4235D08022430F12041343F6001E43C3009946694B00279C460023644402932B0368001B0BED0F51469B46400D009500D13A
:4029400078E0604B98426CD05B46DA004B0F802109040B4313439B465346D9005A4B9C46002360444246201A6A40924601901F430F2F00D9B0E05548BF00C05987463743DC
:4029800000D088E0002399460233082700260293CDE74346B34649460093029B009A9246022B00D0BFE1002153460122002689461A40444B002136030C0D2405360B2643B9
:4029C000434C1B0526401E437600D207760816434846310007B03CBC90469946A246AB46F0BD330003434FD0002E00D1BCE1300001F026F903000B3B1C2B00DDADE11D22E4
:402A00000100D31A08393A008F408E40DA40B9461643304B00279C46002360444442029385E753465A4613432CD1002300219B46023397E70B4320D05B46002B00D19EE18E
:402A4000584601F0FDF803000B3B1C2B00DD8FE102005946083A91408B461D21CB1A5146D9400B0059460B4351469B469140194B9C4660444042002374E7002300219B464D
:402A800001336FE703236DE70023994601330427002602934BE703230C27029347E70122D51A382D00DCB0E153461A4000210023002689467EE70023802699460022360330
:402AC000004B77E7FF07000001FCFFFF60880010FFFF0F80F30300005E4500D972E100D16DE1019B4D46013B01930023340002935B461E020B0E1E430B020393330C9946DC
:402B000033041B0C494620000093FFF77BFA009B370043430600494620009846FFF7F8FA2C0C09040C43A04509D9E419731EA74200D95CE1A04500D859E1023EE419434612
:402B4000E41A49462000FFF75DFA0300009A80465343494620009B46FFF7DAFA2A040904120C0A4393450DD94346D219013B974200D93AE1934500D837E102235B429C46BB
:402B8000D219E0445B46D21A4346360433439B460399180C0B0C1D00059309045B46090C0C001B041B0C4443049159436B4368431B190D0CEB189C4203D980246402A446AF
:402BC00060441C0C09041B04090C20185D18824200D2DEE000D1D7E0161A029B9C465D1BAC459B415B42F61AB74200D106E149463000FFF707FA009B040043434946300053
:402C00009846FFF785FA2E0C09040E43B04509D9F619631EB74200D9F3E0B04500D8F0E0023CF6194346F31A494618000293FFF7E9F9009B06004343494602989846FFF7E5
:402C400067FA2D0409042D0C0D43A84509D9ED19731EAF4200D9D6E0A84500D8D3E0023EED192404210043463143049E059A3000ED1A0B040C0C1B0C58436643534354430B
:402C80009A19030C9B189E4203D980225202944664441A0C00041B04000C14191B18A54250D34DD001231943964A019B94466344002B00DCF3E64A0709D00F220A40042A5F
:402CC00005D00A1D8A42894149428B4411005A46D20108D55A468C4B1A4093468022D2009446019B6344894A934200DD5BE65A46C908500708435602514601225B0581463A
:402D0000360B5B0D0A4055E680231B031E4211D05A461A420ED15E461E433603360B2A0089467B4B46E6032B00D1E1E0012BBBD11A40BBE61E433603360B4246744B39E66A
:402D4000002BB1D07D194A1EAF4252D91100A542A8D1039A9A42A5D1A6E703003E00283B9E400023994654E600F06AFF203041E603005246283B9A400021934677E650464D
:402D800000F05EFF20305EE6029B0026AB4200D323E7039E0299B44661448846B045B6415B467642F619B218013B0291974213D290424FD800D18EE0161A9B460DE7894546
:402DC00000D28EE674084B46F60735005B081D434B46DB0702938BE69742EDD10399029CA142E5D93E1A9B46F7E69846CAE61E00A5E6AC423ED874D0110053E70121494213
:402E000052E71C000EE71E002BE71F2D3CDC20230A0058465B1B9840EA4099400243481E81415E461143EE404B0709D00F230B40042B05D00B00191D99429B415B42F61896
:402E400033023CD55346012200211A40002601238946AFE502235B429C46039CE344A446029B63449846A045B6417642F6190293B218B1E603988A1E41008142B641764223
:402E8000F619AD19039161E71F225242D31A5A46DA401300202D29D040225846551BA8400143481E814107200B4318400026002809D00F2200261A401900042ABBD10B0045
:402EC00070077602360BDB0803439946012253461A4000236EE502998D42BBD89B4600267BE603989842C5D3110032E70020D7E780265B4636031E433603360B009A8946D0
:402F0000034B57E5FF030000FFFFFFFEFE070000FF070000F0B55F4656464D464446F0B40D0399464E002B0B87B00700924680469B46760DCC0F002E69D06D4B9E4235D0C6
:402F40005B468022DD001204430F13432B439B46C3009846674B00279C460023664401934A4615035000D20F53462D0B400D914600D176E05E4A90426CD080225B0F12049A
:402F800013435C4AED0094461D4353460022DB00604449463618701C6140029017430F2F00D9AFE05448BF00C759BF465B461F4300D088E000239B46984602330827019383
:402FC000CEE74946022A6AD0032A00D109E2012A00D0BBE111400022002300259046CCB200212D030A0D12052D0B1543434A1B0515401D436D00E4076D0825434046290043
:4030000007B03CBC90469946A246AB46F0BD034352D05B46002B00D18AE1584600F010FE03000B3B1C2B00DD7BE11D22D31A3A0001005D46DA4008398D4013008F402B434F
:403040009B46B8462E4B00279C46002360444642019385E752462A432CD100250023022297E752462A4321D0002D00D154E1280000F0E6FD03000B3B1C2B00DD46E11D21BE
:40308000CB1A51460200D9405346083A954093400D431B4A944660444042002279E7012400220C40124B0025904699E70025002301226EE703226CE700239B469846013306
:4030C000042701934CE703230C27019348E700238025984600242D03054B81E75D464346019A6FE75D4643462100019A6AE7C046FF07000001FCFFFFA0880010FFFF0F80EE
:40310000F30300004246120C91461A0C9446424617044A461B041B0C5A43604690464A4642431000039262461C003F0C7A437C4342440192220C9246019A5244904506D941
:403140008246802040028046C24450460390100C049048462404240C1204121905922A0C2D042D0C68432C00824648467C4350438146200C8046574357444744BA4503D9CF
:40318000802040028046C144380C3F04B84648442404240C01900498A044404404905846000C814658460404200C8246070048465F434C4643436046604364468346504624
:4031C0004443380C8446E4186444A34203D980235B029C46E34448463F04230C3F0C2404E419574668436F4384464D46504655434243380C814662444A445B44944503D9BF
:40320000802040028446654403983F04834604983F0C8446E344C345804140428246100484460198674484466744A344BC46A345A4419946D44464428742BF41D44580411A
:40324000E144A04699459B417F424042C8440743120CBA18A045A4415F423B0064422343D71843467D19DB0D6D021D435B465A02059B1A43531E9A415B46DB0D1A434346D4
:403280005B021343EA0107D501225C0813402343EA07029E13436D08574AB218002A4BDD580709D00F201840042805D0181D98429B415B42ED180300E80104D54F4A15403B
:4032C0008022D200B2184E48824200DDE7E60124DB08680718436D02530580462D0B5B0D0C407DE6802259461203114208D0154206D115432D0398462D0B4C46414B6FE61E
:403300005D4615432D032D0B3E4B69E603005546283B9D400023BCE6504600F091FC2030A8E60300283B9F400023BB46984689E600F086FC203073E60124A61A382E07DDBE
:4033400000220C4000230025904649E6029EA3E71F2E20DC20222C001800921BF040944093400443581E83411C43F540630709D00F232340042B05D023001C1D9C42924117
:403380005242AD182B021FD5012400220C4001230025904624E61F202C004042821AD440202E1CD04022961BB5402B43581E83410720234318400025002809D00F220025EF
:4033C0001A401C00042AD8D1230068076D022D0B0124DB08034398460C40002300E60025E3E780220124120315432D0398462D0B0C40044BF4E5C046FF030000FFFFFFFEE6
:40340000FE070000FF070000F0B557464E464546E0B40E001100F20F9246C500420F180337037400400A4E0F7F0A3043CF4E17435A00640D520DDB0FC900B24200D1E5E034
:4034400001267340A61AB446534500D1AFE0002E00DC0DE1002A3AD103000B4300D0E4E06B0709D00F232B40042B05D02B1DAB42AD416D427F191D003B0200D488E0BB4BBC
:4034800001349C4200D110E13A00B94B51461A4001235007ED08520264050543120B640D0B400021280012030D0D120B64052D0515436208AF4CDB072C4014436400640858
:4034C0001C4321001CBC90469946A246F0BDA74B9C42C5D080231B0418436346382B00DDFDE01F2B00DD30E1624620239B1A02009A40664690460A009940F24046464B1EA2
:4035000099413243114363460200DA40691A8D429B410D00BA1A5B42D71A3B0235D57A02530A98464346002B00D1C4E0404600F087FB0300083B1F2B00DDC5E020222900EA
:40354000D21A4746D1409F400A009D403A439C4200DDC0E01C1B631C1F2B00DDE4E0202114002800C91AD8408C408D400443DA40681E854117002543002471E74246634698
:403580001A4300D14CE2674645466B0700D069E7012351467807ED08FA080B40054373498C4238D012036405120B640D79E7002E00DC9AE0002A47D06C4A944200D14FE7CB
:4035C0008022120410436246382A00DC08E10143481E81410022C9B24919D219A942BF410D007F42BF183A0200D442E15F4A0134944200D14EE101205D4A69083A40284009
:403600000843D507054357089A4629E706000E4300D017E714E72900114300D1F9E1802109030A431203120B3BE701235B429846C4446346002B72D1691A8D429B413F1AF1
:403640005B42FF1A0D0068E702000A4300D107E7012252429046C4446246002A00D0E6E06918A942B6413F187642F7190D00BAE7002E00D080E0621C5205520D012A00DC64
:40368000F9E06A1A91464D45B6413A1A7642921B9046120200D499E04D1BA9428941C71B49427A1A90469A463CE752460123002513400022F5E6280000F0C2FA203003000E
:4036C000083B1F2B00DC39E72A002838824000259C4200DC3EE7264FE41A1740C0E60143481E81410022C9B210E7002E00D0F1E0621C94465205520D012A00DCA0E01B4AB8
:40370000944500D1C5E06918A94292413F185242D2194908D5070D4357086446A0E6134B9C4200D0D9E69BE611001F3CE1400C00202B00D180E04021CB1A9A4015436A1EB8
:4037400095410027254300241FE763460200203BDA406346202B71D0402366469B1B98400143481E814111430022CFE6FF070000FFFF7FFFFFFF0F80002C48D0CA4CA242E4
:4037800000D1A2E07442A1468024240427434C46382C00DDDBE01F2C00DD44E14E462024A41B3E00A640A246B0464C462E00E640B4464646644626435446A5406C1EA54101
:4037C00034002C434D46EF400D1B28E04A4643464D461A4300D0A5E6002300240025DEE61F2A5ADC66462022921B060096409146B04662460E00D640424616434A469140CF
:403800004A1E9141020060463143C240E4E63C002C435AD0F443A146002C52D14D1BA9428941C71B49427F1A14009A4675E69E4A944200D0C7E613E600227FE700208FE760
:40384000002C00D0C8E03B002B4300D10FE103000B4300D104E66918A9429B413F185B42DF193B0200D41AE1904B0D001F406446F6E59A4689E63A002A43002C5CD1002AA9
:4038800075D102000A4300D1CAE007000D009A46E6E564460022002581E662460600203AD6406246B046202A00D1B7E040226646921B904001434246481E8141114300227E
:4038C0008AE6794CA24200D061E707000D0014009A46C5E5002C41D13C002C4378D0F443A146002C20D0704CA24271D04C46382C00DDB2E01F2C00DDBCE02026341BA246F3
:403900003C005646B4404E46A0462C00F440A446444666463443A4465446A54064466E1EB54125434C46E7406D188D4289413F184942CF19140056E6002A2FD102000A43E3
:4039400000D184E007000D009A46574C88E53D436F1EBD41ECB200270D1B60E7524CA24236D0744280263604A1463743BEE702000A4300D174E56A1A90464545B6413A1A03
:403980007642921B9446120200D4F7E54D1BA9428941C71B49427F1A9A4661E502000A433AD0ED087C072C438025FA082D032A4208D0C7082F4205D145072C003A009A46B8
:4039C000C9080C43670FD200E5001743364C47E507000D00140043E53A002A4343D002000A4319D0ED087C072C438025FA082D032A4207D0C6082E4204D147073C00320060
:403A0000C9080C43D700620FE50017439A46264C26E50022002544E5234C21E5002049E700230025BBE54C463E00203CE6404C46B446202C31D040244E46A61BB7403D430A
:403A40006C1EA54164462C4300270D1BE7E6802200231203144C0025A1E53D436F1EBD410027EDB260E707000D000F4CF8E407000D00F5E44E463C00203EF440A0464C4692
:403A8000202C0ED040244E46A41BA7403D436F1EBD4144460027254346E70027CFE70D0073E50027F2E7C046FF070000FFFF7FFF0B0330B5134D1A0B4B005B0DC90F0024FC
:403AC000AB4211DD104CA34210DC8024640322430E4CE41A1F2C0CDD0D48C31ADA4013005C42002900D11C00200030BD094BCC18FAE7E040084CA44663449A401300034351
:403B0000EEE7C046FE0300001D0400003304000013040000FFFFFF7FEDFBFFFF4200120E511C4302C9B270B55D0AC40F012915DDE02189008C466D071B0B624400212800E9
:403B40000D0D2D052B431C4D52052B40520813435B00E4075B082343190070BD002A15D1002D1FD0280000F06BF80A281DDC0B232A001B1ADA4013000200153295400F4A58
:403B80001B03121A52051B0B520DD7E7002D06D080221B0B120313436D07094ACEE7084A0023CBE700220023C8E703000B3B9D402B000025E3E7C046FFFF0F8089030000F5
:403BC000FF0700008446101C62468C46191C634600E0C0461FB500F0F5F8002801D40021C8421FBD10B500F049F84042013010BD10B500F0E7F8002801DB002010BD0120BA
:403C000010BDC04610B500F0DDF8002801DD002010BD012010BDC04610B500F06FF8002801DC002010BD012010BDC04610B500F065F8002801DA002010BD012010BDC04648
:403C40001C2101231B04984201D3000C10391B0A984201D3000A08391B09984201D30009043902A2105C40187047C04604030202010101010000000000000000F0B55F460D
:403C800056464D464446F0B41F035C00DB0F9A46194B0E034D00C90F8046360B6D0D8B4691463F0B640D9D4219D0134B9C421BD00123A54206D018003CBC90469946A24664
:403CC000AB46F0BDBE42F6D1C845F4D1D34510D0002DF0D1304303005A1E9341EBE7310001230143E7D1E0E73A430123002AE2D1DEE70023DFE7C046FF070000F0B55F4679
:403D0000444656464D46F0B41F033C0B2C4F0E034D00A3465C008446360B6D0DC90F9046640DDB0FBD422BD0254FBC422ED0002D0ED130430700814678427841002C17D1D3
:403D40005F463A4314D14B460020002B0AD006E0002C02D15846024301D099421AD00123484218433CBC90469946A246AB46F0BD0028F2D058425841012240421043F1E7FF
:403D800037000743D0D002204042EBE75F461743CDD0F8E7A542E2DC05DB5E45DFD808D000205E45DED248424841012340421843D8E7C445D3D80020C445F4D3D2E7C04691
:403DC000FF070000F0B55F464D4644465646F0B41C03240BA4462F4C0F034D005E00C90F80463F0B6D0D8B469146760DDB0FA54220D0284CA64222D0002D12D138434442F9
:403E00004441002E20D0002C0DD05C42634101245B421C4320003CBC90469946A246AB46F0BD002E17D05B4519D05B465C4201231C43EFE7390002240143EBD1D9E7614624
:403E400002241143E6D1D7E761460A43DBD100240028DFD0E9E761460A43E4D1E5E7B54203DD01225C421443D4E7B542CDDB6745DBD809D000246745CCD259464C426141B5
:403E8000012449420C43C5E7C845CED80024C845F3D3BFE7FF07000003008218934202D019700133FAE77047F0B58BB014001D1E129906DA802424061B191D0014002D232B
:403EC00000E000230B702023149E03229E43462E07D03300453B59424B411099013ACB18109309AB049308AB0393139B00920293109B220001932B0000F006FD0700472E56
:403F000002D1119BDB072DD5109BFB180793462E14D13B78302B0CD10022002320002900FFF760FE002804D10123109A9B1A139A1360139B079A1B68D31807930022002364
:403F400020002900FFF74EFE3022002802D0079B099307E0099B0799994203D9591C09911A70F7E73800099B159ADB1B13600BB0F0BDF7B52B2307000C000270861C00292D
:403F800001DA2D234C427B70092C1CDD6B46DD1D20000A2102F004FC013D3031297020000A2102F017FB04000928F1DC013D30342C706B4607333000AB4209D92B780135BD
:403FC00033700136F5E73023E4183370B01C7470C01BFEBDF0B595B00C000A920B931A9D099001F02DFB036818000D9300F0ECFB0023129323680E900C930C99277E2B68D3
:404000000722C90501D59B1800E0073393431A0008322A601A685B68A264E3640122E56CA66C6B005B080F935242C04B30000F9902F0E6FE002819D10122BC4B524230005D
:404040000F99FFF7DFFD002810D10022002330002900FFF7CDFD002803D023002D2243331A70B34D472F0ED8B24D0CE032002B003000290002F0C4FE002800D19AE1AE4DD2
:40408000472F00D8AD4D03230C9A236101339A432260002642E0672F00D193E1472F00D190E10C9A0021134312AA059211AA0392232223600691019308A9636852180292CD
:4040C000009332002B0004970998FFF7EDFE20233A0005009A43472A00D18EE11199652F00D996E1200001393A0050301191FFF740FF129A060083182361012A00DD85E1EB
:404100002268D20700D581E1232308AA9B181B78002B03D023002D2243331A700B9B13AA009321000A9B099800F0A4F9431C02D1012040429BE12268530501D4236964E075
:40414000652F00D8CCE0A06CE16C00220023FFF749FD00282CD00123794A0A9909980B9DA847431CE4D0119B129A934208DB2368DB0705D4236800259B0700D50FE113E1F3
:404180000B9D0E9B0D9A0A990998A8470025431CCED0129B013B9D42ECDA220001231A320A9909980B9EB047431CC1D00135F0E7119B002B2BDC0123614A0A9909980B9E17
:4041C000B047431CB4D0119B002B05D1129B002B02D12368DB07CDD50B9E0E9B0D9A0A990998B0470026431CA2D0119B5B429E420ADA220001231A320A9909980B9FB847C7
:40420000431C95D00136F0E7129B2A00ACE0A36D129E9E4200DD1E00002E05DC00230C93F343DB170F9315E033002A000A9909980B9FB847431CF1D17AE7220001231A32C0
:404240000A9909980B9FB847431C00D170E70C9B01330C930F9BA26D0C993340D31A9942EBDBAE18119B129A93420DDB2368DB070AD4129B119AED18AD1B9B1A9D4200DD35
:404280001D00002D09DC11E00E9B0D9A0A9909980B9FB847431CECD14AE72B0032000A9909980B9EB047431C00D141E7EF43FB1700260C930AE0220001231A320A990998F2
:4042C0000B9FB847431C00D132E70136119A129B0C999B1A2A000A409B1A9E42EBDB49E7129B012B02DC01231A4245D001232A000A9909980B9FB847431C00D118E70E9B85
:404300000D9A0A9909980B9FB847431C00D10FE7A06CE16C00220023FFF764FC002801D000251AE0129B6A1C013B26E0FFFFEF7FEC880010E8880010F4880010F0880010BE
:40434000F8880010220001231A320A9909980B9FB847431C00D1EBE60135129B013B9D42F0DB2200330050320A9909980B9DA847431C00D0FEE6DBE62A000A9909980B9DC8
:40438000A847431CEDD1D3E62200012319320A9909980B9EB047431C00D1C9E60135E368139A9B1A9D42EFDB139BE06898425EDA18005CE080236268DB00511C00D06AE627
:4043C000073202E0002A02D10122626069E60C9908A80B430021069112A9059111A90391232109182360019300922B000497029132000998FFF758FD0500119BDA1C02DB6E
:40440000626893421CDD023FFFB267E6013323617AE6662F15D16368002909DD2161002B02D12268D2071ED50133591821611AE0002B03D101222168114213D09A1C11E0B9
:404440006727119B129A934206DB22682361D20709D50133236106E00121002B01DC4918C91A8A182261119B0026A3654CE615B0F0BDC046F7B5170001938A680B690090D9
:404480000C00934200DA130022003B6043321278002A01D001333B6023689B0602D53B6802333B60062523681D401ED0230043331B785A1E9341226892061CD53020E1185D
:4044C0004331087021005A1C45310978A2184332023311700FE022000123193201990098089EB047431C0ED00135E3683A689B1A9D42F0DBDAE72200019943320098089D20
:40450000A847431C02D10120404220E006232068E1683A6803400025042B03D18D1AEB43DB171D40A3682269934201DD9B1AED180027BD420AD0220001231A3201990098C5
:40454000089EB047431CDED00137F2E70020FEBDF0B58BB006920A0043320793059004920A7E0C00109B6E2A00D1ABE011D8632A22D009D8002A00D1B5E0582A00D0C5E0E6
:4045800045310A70814A4FE0642A1DD0692A1BD0BCE0732A00D1AAE009D86F2A29D0702A00D0B3E0202209680A43226037E0752A1FD0782A33D0A9E00E001A684236111D89
:4045C000196013683370A4E021681A68080606D4490604D5111D19600023D55E02E0111D19601568002D3BDA2D23049A6D42137036E021681A68080606D4490604D5156872
:40460000111D1960ADB202E0111D196015685F4B227E039308276F2A1DD00A271BE022007821453211705A4A19680392081D226818600D68100602D4500600D5ADB2D30754
:4046400002D520231A4322601027002D03D1202322689A4322602300002243331A7002E00A274A4B03936368A360002B09DB0422216891432160002D05D1049E002B11D0C8
:404680007BE0002D79D0049E28003900FDF740FD039B013E5B5C280033703900FDF7B2FC051EF1D1082F09D12368DB0706D563682269934202DC3023013E3370049B9B1BEA
:4046C00023612BE009681A68080607D4490605D5111D19601368A28A1A8004E0111D1960136862691A600023049E236116E01A68111D1960166800216268300000F0AEFF55
:40470000002801D0801B6060636803E0260042363270012323610023049A1370079B09AA00932100069B0598FFF7A4FE431C02D10120404227E02369320006990598079DF2
:40474000A847431CF4D0236800259B070FD4099BE068984217DA180015E022000123193206990598079EB047431CE1D00135E368099A9B1A9D42F0DBE9E72600039B423626
:404780001B7833708EE70BB0F0BDC046FA8800100B8900100FB40B4B13B51C68002C05D0A369002B02D1200000F0B6FE05AB049AA1682000019301F031FB16BC08BC04B004
:4047C0001847C046400100080023C25C0133002AFBD1581E7047030030B5002A0DD00C7801335D1E013A2C700131002CF5D19A189A4202D01C700133FAE730BDF0B5036957
:404800000C6989B00700059100269C4279DC0B00013C1433A50003935B1904930300143302935D19049B28681B68591C0193FDF7E9FB0190B04233D0039B02989C460696DB
:40484000634604CB9C46019B91B25943120C5A4389190B0CD3180793069A1E0C038889B29B1802685B1A110C6A46928B8A1A1914521811149BB21204134308C0049B069147
:404880006345DDD22B68002B0AD1029B043DAB4201D33C6104E02B68002BFAD1013CF4E70599380001F0FEF8002829DB0020019B02990133039A019340CA0B881818B3B270
:4048C000C31A0868360C000C801B1D14451928149BB22D042B4308C1049B9342ECD2029AA300D3181A68002A0AD1029A043B9A4201D33C6104E01A68002AFAD1013CF4E784
:40490000019E300009B0F0BDF0B516001F00446A9DB00490259D06960797002C08D1102000F092FE049B5862446084600460C460049B5B6A196800290BD05A68012393401D
:404940004A608B60049800F0D5FE0022049B5B6A1A60079B002B05DA01232B607B005B08079301E000232B60079CC84B220019931A409A4219D1C64B249A1360069AC54B4B
:40498000002A02D1240300D1C34B269A1800002A01D100F07DFDD978DA1C002900D00532269918000A6000F073FD069E079F0022002330003900FFF715F9051E0ED001237D
:4049C000249A1360B54B269A1800002A01D100F05FFDB34A26990A6000F05AFD1AAB01931BAB009332003B00049801F0E1F8630005905B0D09D03A03AA4C120B1443AA4AA0
:404A0000300021009E1817951AE01A9B1B9A9E18A64BF318202B08DDA54A0698B218D0404022D31A9C40204303E020220698D31A984002F047FA01239E4C013E09191793B4
:404A400000229D4BFEF7E0FC9C4A9D4BFEF762FA9C4A9D4B01F0A8FE040030000D0002F0EFF99A4A9A4BFEF755FA02000B002000290001F099FE04000D00FFF719F8002297
:404A80000390002320002900FFF7B2F800280DD0039802F0D5F902000B0020002900FFF7A1F843424341039AD31A039301231693039B162B11D88749DB00C91808684968A7
:404AC000069A079BFFF7A8F8002805D0039B013B03930023169300E016901A9B9E1B00230B93013E0C9604D50C9B5B420B9300230C93039B002B08DB039A0C9B9446634421
:404B00000C9300231192089307E00B9B039A9B1A0B935342089300231193229B0125092B25D8052B02DD0025043B2293229B981E032824D801F044FD060E0204012302E0D9
:404B4000012308E000231093239B002B20DD1F000A9321E00023239A1093039B9F187B1C0A930123FA18002A16DD130014E0012700237F42229310950A97123305E0012701
:404B800001237F4210930A9711330022239203E001273B000A972397049A546A00226260043211001431994204D86168520001316160F6E76168049800F064FD049B2060CD
:404BC0005B6A1B680D930A9B0E2B00D981E1002D00D17EE1069B079C14931594039B002B31DD0F223B491340DB00CB185C681B680E930F94039B02241D11EB060AD514982D
:404C00001599354B15401A6A5B6AFDF76DFE069007910134304E002D0ED001231D4208D00E980F99E41832687368FEF773F90E900F916D100836EEE70E9A0F9B0698079984
:404C4000FDF752FE4CE0039B02245D42002D49D0149815990F231F4A2B40DB00D3181A685B68FEF757F90023069007911A4E2D11002D33D00122154205D0A41832687368C4
:404C8000FEF748F901236D100836F1E70000F07F0F270000258900101C890010F8880010F98800100000F03F01FCFFFF3204000012040000000010FE0000F83F61436F639D
:404CC000A787D23FB3C8608B288AC63FFB799F501344D33F98890010708A0010002B01D006900791169B002B1DD0069D079E0022C74B28003100FEF77BFF002813D00A9B6A
:404D0000002B10D0002F00DCDFE0039B3100013B0E930022BF4B2800FEF7FCF80134069007913E0002E0039B0A9E0E93200002F087F8069A079BFEF7EDF80022B64B01F08A
:404D400033FDB64A12901391129C139D9446139B634418931D00002E1CD1069807990022AF4BFEF751FB2200189B06900791FEF753FF002800D054E2AA481399844661442D
:404D80000B00069807992200FEF732FF002800D03DE29AE0109A731EA349DB00002A49D0CB181A685B680020A049FDF79DFD2B002200FEF729FB129013910D9D0698079939
:404DC000FEF776FE040002F03BF802000B0006980799FEF719FB01356B1E30341C70129A139B06900791FEF703FF002800D02EE3069A079B00208649FEF706FB129A139B15
:404E0000FEF7F6FE002800D0C7E00D9BEB1AB3425BDA1298139900227E4BFEF77BF8002212901391069807997A4BFEF773F806900791C3E7C9182200086849682B00FEF783
:404E400069F80D9C12901391A51906980799FEF72FFE060001F0F4FF02000B0006980799FEF7D2FA303626700134069007910022A54222D16D4B1298139901F095FC0200E1
:404E80000B0006980799FEF7C7FE002800D084E0129A139B00206549FEF7B6FA02000B0006980799FEF7A4FE00280ED06B1E1A78302A00D0CBE21D00F8E706980799554B12
:404EC000FEF728F806900791BFE7149B159C069307941B9B002B00DA81E0039A0E2A00DD7DE0D300504AD3185C681B6808930994239B002B15DA0A9B002B12DC00D088E164
:404F0000089809990022464BFEF704F8069A079BFEF78CFE0A9B08931E00002800D07BE182E10D9D069E079F089A099B30003900FDF7DAFCFEF7BCFD040001F081FF089A83
:404F4000099BFDF7E7FF02000B0030003900FEF75BFA220001356B1E30321A700D9B0A9AEB1A9A422ED102000B0001F01DFC06000F0002000B0008980999FEF739FE00282B
:404F80000FD10898099932003B00FEF72BFE002800D15EE2E30704D45BE20E9B039300E01D006B1E1A78392A08D10D9A9A42F7D1039A0D990132039230220A701A78013292
:404FC0001A7046E20022134BFDF7A4FF0022002306000F00FEF706FE0028A5D039E2109A002A44D0229A012A0BDC179A002A02D00F4A9B1802E036231A9A9B1A089D0B9C7E
:4050000029E00A9B5D1E089BAB4213DB5D1B18E00000F03F0000244000001C400000C0FC000014400000C07C988900100000E03F33040000089B0895EA1A0025119B9B18CF
:4050400011930A9B002B04DA0B9B0A9A9C1A002301E00B9C0A9B0B9A0121D2180B920C9A0498D3180C9300F0E5FB060002E0089D0B9C109E002C0ED00C9B002B0BDD0C9A58
:405080002300944200DD13000B9AE41AD21A0B920C9AD31A0C93089B002B20DD109B002B17D0002D11D031002A00049800F054FC059A01000600049800F0C5FB05990E90AE
:4050C000049800F017FB0E9B0593089B5A1B06D000E0089A0599049800F03EFC05900121049800F0A7FB119B0890002B00D1C0E11A000100049800F02FFC229B0890012BE4
:4051000017DC0025069BAB420ED1079B1B03AB420AD1199B079A134206D00B9B013501330B930C9B01330C93119B0120002B0DD000E00025089B089A1B690E9303339B00A5
:40514000D318586800F02CFB2023181A0C9BC0181F23184009D001331B1A042B02DD1C23181A03E0042B08D018001C300B9B24181B180B930C9B1B180C930B9B002B05DDF1
:405180001A000599049800F03BFC05900C9B002B05DD1A000899049800F032FC0890169B002B1DD00899059800F07CFC002817DA039B0A22013B039305990023049800F0AD
:4051C000B2FA109B0590002B00D159E1310000230A22049800F0A7FA0600002F37DC33E00A9B0A9F002B2ADC229B022B27DD002F12D108993B000522049800F094FA089051
:405200000100059800F04EFC00280DDC04E0089602E000231E000893239B0D9DDB4303930AE00E9B089603930D9B0D9A5D1C31231370039B013303930A960026F3E0109B17
:40524000002B04D10D9DB5E0229B022BCFDC002C05DD31002200049800F0D2FB06000A96002D12D07168049800F00CFA3100040033690C319A1C92000C3000F0FAF90122E8
:405280002100049800F0BCFB0A900D9B7D1E0B935B190E9308990598FFF7B0FA310010900400059800F0FEFB0A9A05000899049800F013FC01230C93C36830340700002B58
:4052C00004D10100059800F0EDFB0C903900049800F010FA0C9B229A134308D1069A0133134204D1392C2AD0002D1CDC1DE0002D06DB229B1D431BD10123069A134217D1CF
:405300000C9B002B11DD05990122049800F078FB0899059000F0C6FB002802DC05D1E30703D5392C0BD0109C31340B9B5D1C0FE00B9B5F1C0C9B002B0CDD392C05D10B9B4C
:405340000B9A5D1C3923137057E03D000B9B01341C7068E00B9B0E9A3D001C7093423CD000230A220599049800F0DDF90A9B05909E4208D1310000230A22049800F0D3F9FB
:4053800006000A900DE0310000230A22049800F0CAF9002306000A220A99049800F0C3F90A900B9776E700230A220599049800F0BAF9059008990598FFF720FA0D9B3030A1
:4053C000287001350400EB1ABB42ECDB3D1E00DC01250A9600260D9B5D1905990122049800F00EFB0899059000F05CFB002804DC13D1E30701D410E01D006B1E1A78392AC8
:4054000008D10D9A9A42F7D1039B013303933123137008E001321A7005E06B1E1A78302A01D11D00F9E70899049800F063F90A9B002B0ED0002E05D09E4203D03100049881
:4054400000F058F90A99049800F054F901E00E9B03930498059900F04DF900232B70039B249A01331360269B0D98002B10D01D600EE0229B012B00DC43E6119D012065E63A
:40548000002F00DDDEE6229B022B00DCDAE6AEE61DB0F0BD10B5024900F0B0F810BDC04605640010002310B5040003604360836081814366C28103614361836119000822A2
:4054C0005C30FEF7E9FC054B24626362044BA362044BE362044B236310BDC04679600010A1600010D96000100561001070B568254B1E5D430E002900743100F007FC041EB6
:4055000008D000212A00016046600C30A0606832FEF7C2FC200070BD836913B50400002B28D18364C3640365134B144A1B6882620193984201D101238361200000F020F886
:405540006060200000F01CF8A060200000F018F80022E06004216068FFF7A4FF01220921A068FFF79FFF02221221E068FFF79AFF0123A36113BDC046E488001095540010B5
:40558000F8B51D4B06001D68AB69002B02D12800FFF7C2FF4835AC686B68013B05D40C22A75E002F10D06834F7E72B68002B01D02D68F0E704213000FFF798FF2860002898
:4055C000F6D10C23336016E0012320005B42E3810233A38167662760A760676027616761A7615C3008223900FEF756FC20006763A763A764E764F8BDE4880010F7B50400B3
:405600000700002601914834002C16D06368A5680093009B013B00930DD4AB89012B08D90E22AB5E013304D029003800019B984706436835EDE72468E6E73000FEBD00000B
:40564000004870474401000810B5034B0100186800F05CFB10BDC04640010008C9B28218904204D003788B4202D00130F8E700207047002310B59A4203D0CC5CC454013320
:40568000F9E710BD70B5466A04000D00002E07D11020FFF7D9FF6062466086600660C660666AF368002B09D0636AAA00DB689B18186800280ED002681A6017E02122042114
:4056C000200000F0C9FA636AF060DB68002BEBD100200EE001210E00AE40721D9200200000F0BAFA0028F3D04560866000230361C36070BD70B5456A06000C00002D07D147
:405700001020FFF7A1FF7062456085600560C560002C07D0726A6368D2689B00D3181A6822601C6070BDF7B5070008000C000D691E00002101921430019A03880131534365
:405740009B190668360C56431A0C9446B4446246160C120494469BB2634408C08D42EBDC002E1BD0A3689D4212DB63683800591CFFF788FF2100236901909A1C92000C3180
:405780000C30FFF776FF21003800FFF7B3FF019C2B1D9B00E31801355E6025612000FEBD00220300010C914201D103041032190E01D108321B02190F01D104321B01990F0D
:4057C00001D102329B001000002B03DB20205B0000D5501C70470722036810B501001A400CD001240020234223D10222134203D0E34020000B601CE09B0818E098B200282B
:4058000001D110221B0CD8B2002801D108321B0A180701D104321B09980701D102329B08D80704D45B082020002B02D0013210000B6010BD10B50C000121FFF723FF0123C6
:405840004461036110BDF0B50B691400126989B00D00934201DA25000C002F692669AA68BB1969680193934200DD0131FFF70AFF0200BB1914329B00D3189C460021130076
:405880000290634501D202C3FBE71435BF00EB191434B6000593A31903950793079B9C4251D2208800281ED015000026039F08CF069504936B461B8A434319002B88CB18D2
:4058C00004999B19090C41432E68360C89191E0C89190E0C9BB209040B4308C5059BBB42E5D8069B5E6023681D0C1FD0002110001368039F04913E8801686E43090C71182C
:40590000049E9BB289190E043343036008CF86881B0C6B43090C9B195B18190C0491059906900430B942E6D806994B6004340432B4E704235B429C4463461B68002B05D1F6
:40594000019B013B0193019B002BF2DC029B019A18001A6109B0F0BD0323F7B5134005000E001400002B08D02349013B9A00525800233100FFF7D7FE0600A310019338D046
:405980006C6A002C07D11020FFF75EFE6862446084600460C4606F6ABC68002C10D117492800FFF747FF0023B8600400036007E0019B5B1001931CD02068002810D004003F
:4059C0000122019B1342F3D0310022002800FFF73AFF070031002800FFF78CFE3E00E7E7220021002800FFF72EFF002320600360E5E73000FEBDC046608A0010710200007C
:405A0000F0B50C0017002369551185B0EB180193013300934968A3680290009A934202DA01315B00F9E70298FFF72CFE00230200060019001432AB4203DA980011500133D8
:405A4000F9E7EB43DB171D402300AD0055192269143392009A1894461F22174014D00132D21B0392002219682800B9400A4304C504CB0399CA409C45F5D84260002A07D0CA
:405A8000019B0233009303E004CB04C59C45FBD8009B0298013B33612100FFF72BFE300005B0F0BD03690A6910B59B1A0400181E12D1930014341431E218C918043A043990
:405AC00013680868834204D083429B410120184302E09442F2D3002010BDF0B50C0085B00700110020001500FFF7DCFF061E07D101003800FFF7C6FD01234661036155E045
:405B000000230193984204DA23002C001D000123019361683800FFF7B5FD019B26692F00C3601434B300E318020002932B69002514379B00FB180393143208CC69469C462C
:405B400008CF0432009363468B808B885D19009B9BB2EB1A65460193009B2D0C190C019B691A1D14131F9C466B4649199B880D1409040B4361460B60039BBB42DDD8029910
:405B800013008C420BD202CC8BB25B191D14090C49190D149BB209040B4308C2EFE7043B1A68002A01D1013EF9E7066105B0F0BDF7B51D000121089F1400FFF763FD2B03C8
:405BC0006D0006001B0B6D0D02D08022520313430193002C18D068460094FFF7FCFD009C002809D0019B20211A00091A8A40C34022437261019300E07461019CB461631E62
:405C00009C410134346107E001A8FFF7E4FD0124019B346173612030002D06D00B4BED1835232D183D60181A0BE0094BC018094B3860E3189B00F3185869FFF7B1FD6401A4
:405C4000201A099B18603000FEBDC046CDFBFFFFCEFBFFFFFFFFFF3F4A4370B51100140000F054F8051E03D022000021FEF714F9280070BD70B50500002944D00C1F236854
:405C8000002B00DAE418280000F060FC1E4A13681100002B02D16360146031E0A3420DD92268A018834203D118685B688218226063600C6024E0A24203D813005A68002A3F
:405CC000F9D11E689819A0420BD12168711858181960824214D110685268411819605A600EE0A04202D90C232B6009E021686018824203D1106852684118216062605C6012
:405D0000280000F024FC70BDB4080008032370B5CD1C9D43083506000C2D01D20C2501E0002D01DBA94202D90C23336048E0300000F00CFC234B1C681A002100002913D0AB
:405D40000B685B1B0DD40B2B02D90B60CC181EE08C4202D1636813601AE04B6863600C0016E00C004968E9E7174C2368002B03D1300000F06FF920602900300000F06AF97C
:405D8000431C18D00323C41C9C43A0420DD12560300000F0DCFB200007220B30231D9043C31A0ED05A42E2500BE0211A300000F051F9431CEBD10C233000336000F0C7FB0C
:405DC000002070BDB4080008B0080008936810B5013B9360002B05DA9469A34208DBCBB20A2B05D01368581C10601970C8B201E000F08EF910BDF8B506000F001400D51843
:405E0000AC4208D021783A003000FFF7DFFF0134431CF5D100E00020F8BD0000F0B59FB006000F0002920593002804D08369002B01D1FFF771FB7F4B9F4201D1776808E0F6
:405E40007D4B9F4201D1B76803E07C4B9F4200D1F768BB891B070AD53B69002B07D0002306AD6B6120336B761033AB763DE03900300000F0B9F90028F1D001204042D6E03E
:405E8000059A111D12680591002A00DA7FE00992013423782E2B00D18DE0217803226848FFF7DCFB002807D0654B2A68C01A4023834013432B6001342178631C0622614825
:405EC00002932976FFF7CAFB002800D19DE05E4B002B00D090E00722059B07339343083305936B69039A9B186B61029C2378002B04D1029BE31A049312D003E0252BF8D046
:405F00000134F3E7049B029A39003000FFF773FF431C00D186E06A69049B944663446B612378002B7ED00122002352426A6002A95432521801342B60EB60AB601370AB65F5
:405F4000217805224148FFF789FB002808D03F4B2A68C01A0123834013432B600134EFE72B68DA0604D55322202102A8121811701A0704D553222B2102A812181170227894
:405F80002A2A00D17CE7099B00200A2105E05242EA60022213432B607AE72278303A092A04D84B4301349B180120F6E7002800D16FE709936DE763782A2B0AD1059B02349A
:405FC0001A1D1B680592002B01DA01235B42079363E700230A201A0001346B6021783039092904D84243013452180123F6E7002B00D152E7079250E705AB00933A00144B28
:4060000029003000FDF7E6FF07E005AB00933A000F4B29003000FEF79BFA0390039B013300D05EE7BB895B0600D526E70B981FB0F0BDC0462C8900104C8900106C890010B8
:406040009E8A0010A28A0010D53F0010988A0010F75D0010002370B5064C05000800236000F088FF431C03D12368002B00D02B6070BDC046F808000870B50C000E25495FC6
:4060800000F066FA002803DB636D1B18636503E0A289024B1340A38170BDC046FFEFFFFFF8B51F008B8905000C001600DB0505D50E23C95E0022022300F0D0F9A289054B3A
:4060C00028001340A38132000E23E15E3B0000F077F8F8BDFFEFFFFF70B50C000E25495F00F0BCF9A389421C03D1054A1340A38104E0802252011343A381606570BDC04604
:40610000FFEFFFFF10B50E23C95E00F0E3F810BDF8B505000F001400002804D08369002B01D1FFF7F9F9234B9C4201D16C6808E0214B9C4201D1AC6803E0204B9C4200D115
:40614000EC68A369A360A3891B070AD52369002B07D023682269FEB2981A636998420FDB08E02100280000F03FF80028F1D0012040421DE02100280000F044F90028F6D1B3
:40618000A3680130013BA36023685A1C22601F706369984205D0A3893000DB0708D50A2E06D12100280000F02DF90028DFD13000F8BDC0462C8900104C8900106C890010DC
:4061C00070B50500080011000022064C22601A00FBF7D2FE431C03D12368002B00D02B6070BDC046F8080008364B70B51D6806000C00002D05D0AB69002B02D12800FFF79C
:406200008BF9314B9C4201D16C6808E02F4B9C4201D1AC6803E02E4B9C4200D1EC680C22A35E9AB2110723D4D10607D409220120326037321343A381404242E0530713D572
:40624000616B002908D023004433994202D03000FFF710FD002363632422A3899343A38100236360236923600822A3891343A3812369002B0BD1A0238022A1899B0092006E
:406280000B40934203D02100300000F021F90123A289134005D00023A36063695B42A36103E0920700D46369A36000202369834207D10C22A35E1A0603D540221343A3811B
:4062C000013870BD400100082C8900104C8900106C890010002370B5064C05000800236000F028FE431C03D12368002B00D02B6070BDC046F8080008F7B58A8905000C00B1
:4063000013075AD44B68002B02DC0B6C002B19DDE76A002F16D000232E682B6080235B011A4001D0606D14E00123216A2800B847431C0ED12B68002B0BD01D2B01D0162B25
:4063400002D12E6000205AE04022A3891343A38155E0A3895B0706D56368C01A636B002B01D0236CC01A00230200216A2800E76AB847A389421C06D129681D293AD8204A08
:40638000CA40D20736D50022626022692260DB0405D5431C02D12B68002B00D16065616B2E600029CED023004433994202D02800FFF760FC0020606321E00F69002FC1D0C1
:4063C0000B680F60DB1B01930023920700D14B69A36003E0019B3F181B1A0193019B002BB0DD019B3A00216A2800A66AB0470028F0DCA389402201201343A3814042FEBD10
:40640000010040200B6970B505000C00002B01D100201CE0002804D08369002B01D1FFF77BF80B4B9C4201D16C6808E0094B9C4201D1AC6803E0084B9C4200D1EC680C22A9
:40644000A35E002BE4D021002800FFF755FF70BD2C8900104C8900106C89001070B50500080011000022064C22601A0000F07AFD431C03D12368002B00D02B6070BDC0469C
:40648000F808000870B50E001D000E23C95E90B01400002906DA00232B60B3891B060FD540230FE001AA00F067F80028F3DBF023029A1B021340054A9B185A4253412B60C2
:4064C0008023DB000020236010B070BD00E0FFFFF7B502268B8905000C00334210D101AB6A46FFF7CFFF009907002800FFF70EFC00280CD10C22A35E9A0523D43343A38115
:406500002300473323602361012363611AE080220D4BAB62A38920601343A381009B20616361019B002B0AD00E23E15E280000F035F8002803D00122A3891343A381A38982
:406540001F43A781F7BDC046955400107047704770B50500080011000022064C22601A00FBF71CFD431C03D12368002B00D02B6070BDC046F8080008002370B5064C0500F4
:4065800008001100236000F0DDFC431C03D12368002B00D02B6070BDF8080008002370B5064C05000800236000F0D4FC431C03D12368002B00D02B6070BDC046F808000894
:4065C00002B4714649084900095C49008E4402BC7047C04603460B437FD4002243088B4274D303098B425FD3030A8B4244D3030B8B4228D3030C8B420DD3FF22090212BAA8
:40660000030C8B4202D31212090265D0030B8B4219D300E0090AC30B8B4201D3CB03C01A5241830B8B4201D38B03C01A5241430B8B4201D34B03C01A5241030B8B4201D35E
:406640000B03C01A5241C30A8B4201D3CB02C01A5241830A8B4201D38B02C01A5241430A8B4201D34B02C01A5241030A8B4201D30B02C01A5241CDD2C3098B4201D3CB0127
:40668000C01A524183098B4201D38B01C01A524143098B4201D34B01C01A524103098B4201D30B01C01A5241C3088B4201D3CB00C01A524183088B4201D38B00C01A5241B3
:4066C00043088B4201D34B00C01A5241411A00D201465241104670475DE0CA0F00D04942031000D34042534000229C4603098B422DD3030A8B4212D3FC22890112BA030A59
:406700008B420CD3890192118B4208D3890192118B4204D389013AD0921100E08909C3098B4201D3CB01C01A524183098B4201D38B01C01A524143098B4201D34B01C01A7F
:40674000524103098B4201D30B01C01A5241C3088B4201D3CB00C01A524183088B4201D38B00C01A5241D9D243088B4201D34B00C01A5241411A00D20146634652415B102E
:40678000104601D34042002B00D54942704763465B1000D3404201B50020FBF7BDFC02BD0029F8D016E77047F8B556465F464D464446F0B40F00FD0FAA4609037C002E002D
:4067C0005F00450F490A7F0D2943C5001803BC46400A570F640DDB0F3843D2009A4500D1AAE06646A61B002E00DCFFE06346002B39D10300134300D0D9E06B0709D00F2394
:406800002B40042B05D02B1DAB42AD416D4249191D000B0200D482E0CA4B01349C4200D1FEE00A005646C84BED081A405007640552020543120B640D002112030B0D1B051E
:406840006405120B1A436308C04CF60714401C43640064083443280021003CBC90469946A246AB46F8BDB74B9C42C6D080231B041843382E00DDEBE01F2E00DD1EE1202336
:406880009B1B9C4603006746BB40984613004746F3403B436746BA40571EBA4113430200F240EB1A9D42B6411D008A1A7642911B0B0231D54A02560A002E00D1B4E0300043
:4068C000FDF7BEF90300083B1F2B00DDB5E020222900D21AD1409E400A009D4032439C4200DDB1E01C1B631C1F2B00DDD5E0202114002800C91A8C40D8408D400443DA40F9
:40690000681E854111002543002476E74146314300D134E2310045466B0700D06FE756464807ED08C9080543864B9C4235D00A036405120B640D7FE76346E31A9B46002B12
:4069400000DC8BE06746002F3CD07E4FBC4200D153E780273F0438435B46382B00DCF7E00243501E82410020D2B253194218AB4289411D00494289180B02CDD5714B013476
:406980009C4200D13DE101206F4A6B080A4028401843D507054351082FE72B000B4300D1CBE180231B030B431A03120B44E7013E002E6DD1AE1AB5429B41091A5B42C91ACA
:4069C000350075E70700174300D116E701235B429C46E3445B46002B00D0E0E0AA18AA429B4109185B4259181500C5E7002E75D1661C7605760D012E00DCF3E0AE1AB046A7
:406A00004545BF410E1A7F42F61B370200D48FE0551BAA42B641411A76428E1B9A464BE756460022002507E72800FDF709F920300300083B1F2B00DC49E72A00283882400E
:406A400000259C4200DC4DE73F49E41A1140D4E60243501E8241D3B2002222E7002B00D0F3E0631C9C465B055B0D012B00DC9FE0344B9C4500D1C3E0AA180918AA4280416A
:406A800040424118CD075208154349086446B4E62C4B9C4200D0ECE6AFE611001F3CE1400C00202B00D17FE04021CB1A9A4015436A1E95410021254300242DE7330007006F
:406AC000203BDF403B00202E70D04027BE1BB0400243501E824113430022E2E6002C4FD0184CA44500D1ABE08024240476422143382E00DDDFE01F2E00DD43E12027BC1B23
:406B0000A1460C004F46BC40A0462C004746F4403C434F46BD406F1EBD41F1402C43151BAA429241411A5242891A64469A46BFE641464546314300D0BEE6002600240025A9
:406B4000F2E6C046FF070000FFFF7FFFFFFF0F801F2B59DC2027FF1ABC46070063469F405B46B9461700DF40B8464F4643461F4363469A40531E9A415B463A43D840F4E685
:406B80000C002C435CD0F643002E55D1551BAA42A441411A6442091B9A46644688E6964FBC4200D0D8E628E6002280E700208FE70B002B43002C00D0C2E0002B00D101E1B0
:406BC0000300134300D118E6AB18AB42B6410918764271180A0200D409E1884A1D00114064460AE6002C5BD10E002E4300D08AE00100114300D1C2E0010015009A46FCE510
:406C00006446002100258FE620235B429C46DC4463460700DF405B46BC46202B00D1ACE040235F46DB1B98400243501E8241634613431A00002098E66F4CA44500D057E73E
:406C40000100150064469A46D7E5002C39D10C002C436ED0DB43002B1AD0674CA44568D0382B00DDA4E01F2B00DDAEE020240F00E41AA740B9462F00DF40B846A3464F4648
:406C8000444627435C46A5406C1EA541D9403D43AD1895429B4109185B42591864466BE60C002C4315D1010011437BD0010015009A46514CA1E50D43691E8D410021ECB230
:406CC0002DE74D4CA44534D0802424045B422143C6E7040014434ED0ED084C072C438025C9082D03294208D0C6082E4205D1D208410711430C009A463100620FC900E500A1
:406D000011433D4C79E50600164300D175E5AE1AB0464545BF410E1A7F42F61B370200D4F4E5551BAA42B641411A7642891B9A4663E50100150064465FE5002200257BE589
:406D4000002B3BD00300134315D0ED084B072B438025C9082D03294207D0C4082C4204D141070B002100D2081343C9005A0F1143DD00214C41E5204C3FE5002054E7002648
:406D80000025D1E534000F00203CE7403C00202E2BD04027BE1BB1400D43691E8D4100212C43BCE6802100260903134C0025BBE50D43691E8D410021EDB269E701001500E3
:406DC0000D4C1AE50100150017E51C000F00203CE7403C00202B0CD04027FB1A99400D43691E8D410021254352E70021D4E71D0092E50021F3E7C046FF070000FFFF7FFF69
:406E000070B50E4E0C031D0349005B00240B490D2D0B5B0DB14204D0084900208B4208D070BD04430120002CFAD1044900208B42F6D115432800451EA841F1E7FF070000C5
:406E400070B5002830D0C317C4185C40C50F2000FCF7F6FE174B184A1B1AD21A1F2A18DD164AD21A9440002224035B05240B5B0D0021100024030A0D1205240B1443104AAF
:406E80001B0514401C436400ED0764082C43210070BD210091400A000B21081AC4405B052403240B5B0DE3E70025002300240022DEE7C0461E04000033040000130400007F
:406EC000FFFF0F8070B5051E28D0FCF7B9FE154B154A1B1AD21A1F2A16DD2C00134A0025D21A94405A052403240B520D002124030B0D240B1B0523430D4C1205234013433F
:406F00005B002800590870BD0B212C00081AC440954024035A05240B520DE7E700220024E4E7C0461E0400003304000013040000FFFF0F8058220120014B40421A6070475D
:406F4000F808000858220120014B40421A607047F80800085822024B00201A607047C046F808000858220120014B40421A607047F8080008044A1368002B03D01818106038
:406F800018007047014BF9E7B808000800090008454AF8B5564692464B005B0D9A444D465F4644465246F0B4894605000C000E000700132A22DC002A47DB52463B4B1341D0
:406FC00098460B0042461340034311D0384A394BFFF7EAFB00220023FCF71EFE002805D0002C41DB4E46434600279E43380031003CBC90469946A246AB46F8BD5246332A6E
:4070000008DD8023DB009A45F2D102000B00FFF7CBFBEDE7284A9446012263445242DA4093460242E4D0224A224BFFF7BDFB00220023FCF7F1FD0028D8D0002C1ADB5B46DA
:407040004E469F4338003100D2E7194A194BFFF7ABFB00220023FCF7DFFD0028C6D0002C16DB00270026C1E7802352465B0313419944B7E75346142B12D0342352460127F8
:407080009B1A9F407F19AF429B415B429944D6E76400640825430027002DA7D0074EA5E7133B9C46E144CAE701FCFFFFFFFF0F009C7500883CE4377EEDFBFFFF0000F0BFAB
:4070C00030B5214A4B0087B05B0893421EDD1F4A934205DD02000B00FCF796F907B030BD02AA00F035F803231840049A059B01281ED0022811D000281FD00298039900F054
:407100002DFA80231B069C466144E7E7002300220093002300F08EFFE0E7012402980399009400F087FF80231B069C466144D5E70298039900F012FAD0E701240298039920
:40714000009400F077FFC9E7FB21E93FFFFFEF7FF0B54E4657464546E0B4DC4B4E0090B01700894676089E4200DC81E0D84B9E4220DCD84A002900DC89E1D74BFCF744F9A8
:40718000D54B04000D009E4200D18AE0D34AD44BFCF73AF902000B0020003A607B602900FCF732F9CD4ACE4BFCF72EF9B860F960012066E0CB4B9E4200DC8DE0CA4B9E42E2
:4071C00065DCCA4932158A46924453461B05F51A29000400FCF76CFCFFF732FE02000B00200029000A920B93FCF70EF90022C04BFBF790FE02900391FCF75AFCFFF720FE1E
:4072000004000D0002000B00029803990C940D95FCF7FAF80022B64BFBF77CFE002200230E900F91FCF7DEFC002800D14CE10023002220002900FCF7D5FC0222431E98411E
